{
  "_format": "hh-sol-artifact-1",
  "contractName": "Swapper",
  "sourceName": "contracts/Swapper.sol",
  "abi": [
    {
      "anonymous": false,
      "inputs": [
        {
          "indexed": false,
          "internalType": "uint8",
          "name": "version",
          "type": "uint8"
        }
      ],
      "name": "Initialized",
      "type": "event"
    },
    {
      "anonymous": false,
      "inputs": [
        {
          "indexed": true,
          "internalType": "address",
          "name": "user",
          "type": "address"
        },
        {
          "indexed": true,
          "internalType": "bytes32",
          "name": "destChain",
          "type": "bytes32"
        },
        {
          "indexed": false,
          "internalType": "address",
          "name": "fromToken",
          "type": "address"
        },
        {
          "indexed": false,
          "internalType": "address",
          "name": "toToken",
          "type": "address"
        },
        {
          "indexed": false,
          "internalType": "uint256",
          "name": "inputAmount",
          "type": "uint256"
        },
        {
          "indexed": false,
          "internalType": "uint256",
          "name": "outputAmount",
          "type": "uint256"
        },
        {
          "indexed": false,
          "internalType": "uint256",
          "name": "fee",
          "type": "uint256"
        }
      ],
      "name": "Lock",
      "type": "event"
    },
    {
      "anonymous": false,
      "inputs": [
        {
          "indexed": true,
          "internalType": "address",
          "name": "user",
          "type": "address"
        },
        {
          "indexed": false,
          "internalType": "string",
          "name": "username",
          "type": "string"
        },
        {
          "indexed": false,
          "internalType": "address",
          "name": "fromToken",
          "type": "address"
        },
        {
          "indexed": false,
          "internalType": "uint256",
          "name": "inputAmount",
          "type": "uint256"
        },
        {
          "indexed": false,
          "internalType": "uint256",
          "name": "outputAmount",
          "type": "uint256"
        },
        {
          "indexed": false,
          "internalType": "uint256",
          "name": "fee",
          "type": "uint256"
        }
      ],
      "name": "LockHive",
      "type": "event"
    },
    {
      "anonymous": false,
      "inputs": [
        {
          "indexed": true,
          "internalType": "address",
          "name": "previousOwner",
          "type": "address"
        },
        {
          "indexed": true,
          "internalType": "address",
          "name": "newOwner",
          "type": "address"
        }
      ],
      "name": "OwnershipTransferred",
      "type": "event"
    },
    {
      "anonymous": false,
      "inputs": [
        {
          "indexed": false,
          "internalType": "address",
          "name": "account",
          "type": "address"
        }
      ],
      "name": "Paused",
      "type": "event"
    },
    {
      "anonymous": false,
      "inputs": [
        {
          "indexed": true,
          "internalType": "address",
          "name": "user",
          "type": "address"
        },
        {
          "indexed": false,
          "internalType": "address",
          "name": "token",
          "type": "address"
        },
        {
          "indexed": false,
          "internalType": "string",
          "name": "lockHash",
          "type": "string"
        },
        {
          "indexed": false,
          "internalType": "uint256",
          "name": "inputAmount",
          "type": "uint256"
        },
        {
          "indexed": false,
          "internalType": "uint256",
          "name": "outputAmount",
          "type": "uint256"
        }
      ],
      "name": "Release",
      "type": "event"
    },
    {
      "anonymous": false,
      "inputs": [
        {
          "indexed": true,
          "internalType": "address",
          "name": "user",
          "type": "address"
        },
        {
          "indexed": true,
          "internalType": "address",
          "name": "inputToken",
          "type": "address"
        },
        {
          "indexed": true,
          "internalType": "address",
          "name": "outputToken",
          "type": "address"
        },
        {
          "indexed": false,
          "internalType": "uint256",
          "name": "inputAmount",
          "type": "uint256"
        },
        {
          "indexed": false,
          "internalType": "uint256",
          "name": "outputAmount",
          "type": "uint256"
        },
        {
          "indexed": false,
          "internalType": "uint256",
          "name": "fee",
          "type": "uint256"
        }
      ],
      "name": "Swapped",
      "type": "event"
    },
    {
      "anonymous": false,
      "inputs": [
        {
          "indexed": false,
          "internalType": "address",
          "name": "account",
          "type": "address"
        }
      ],
      "name": "Unpaused",
      "type": "event"
    },
    {
      "inputs": [],
      "name": "EXCHANGE",
      "outputs": [
        {
          "internalType": "address",
          "name": "",
          "type": "address"
        }
      ],
      "stateMutability": "view",
      "type": "function"
    },
    {
      "inputs": [],
      "name": "NATIVE_TOKEN",
      "outputs": [
        {
          "internalType": "address",
          "name": "",
          "type": "address"
        }
      ],
      "stateMutability": "view",
      "type": "function"
    },
    {
      "inputs": [],
      "name": "bridgeAdmin",
      "outputs": [
        {
          "internalType": "address",
          "name": "",
          "type": "address"
        }
      ],
      "stateMutability": "view",
      "type": "function"
    },
    {
      "inputs": [],
      "name": "bridgeLiquidityToken",
      "outputs": [
        {
          "internalType": "address",
          "name": "",
          "type": "address"
        }
      ],
      "stateMutability": "view",
      "type": "function"
    },
    {
      "inputs": [
        {
          "internalType": "bytes32",
          "name": "",
          "type": "bytes32"
        }
      ],
      "name": "destChains",
      "outputs": [
        {
          "internalType": "bool",
          "name": "",
          "type": "bool"
        }
      ],
      "stateMutability": "view",
      "type": "function"
    },
    {
      "inputs": [],
      "name": "feeData",
      "outputs": [
        {
          "internalType": "address",
          "name": "",
          "type": "address"
        }
      ],
      "stateMutability": "view",
      "type": "function"
    },
    {
      "inputs": [
        {
          "internalType": "address",
          "name": "_token",
          "type": "address"
        }
      ],
      "name": "getBalance",
      "outputs": [
        {
          "internalType": "uint256",
          "name": "",
          "type": "uint256"
        }
      ],
      "stateMutability": "view",
      "type": "function"
    },
    {
      "inputs": [
        {
          "internalType": "address",
          "name": "_feeData",
          "type": "address"
        }
      ],
      "name": "initialize",
      "outputs": [],
      "stateMutability": "nonpayable",
      "type": "function"
    },
    {
      "inputs": [
        {
          "internalType": "bytes",
          "name": "_data",
          "type": "bytes"
        },
        {
          "internalType": "bytes32",
          "name": "_destChain",
          "type": "bytes32"
        },
        {
          "internalType": "address",
          "name": "_toToken",
          "type": "address"
        }
      ],
      "name": "lock",
      "outputs": [
        {
          "internalType": "uint256",
          "name": "swapOutput",
          "type": "uint256"
        }
      ],
      "stateMutability": "payable",
      "type": "function"
    },
    {
      "inputs": [
        {
          "internalType": "bytes",
          "name": "_data",
          "type": "bytes"
        },
        {
          "internalType": "string",
          "name": "_username",
          "type": "string"
        }
      ],
      "name": "lockHive",
      "outputs": [
        {
          "internalType": "uint256",
          "name": "swapOutput",
          "type": "uint256"
        }
      ],
      "stateMutability": "payable",
      "type": "function"
    },
    {
      "inputs": [],
      "name": "newExchange",
      "outputs": [
        {
          "internalType": "address",
          "name": "",
          "type": "address"
        }
      ],
      "stateMutability": "view",
      "type": "function"
    },
    {
      "inputs": [],
      "name": "owner",
      "outputs": [
        {
          "internalType": "address",
          "name": "",
          "type": "address"
        }
      ],
      "stateMutability": "view",
      "type": "function"
    },
    {
      "inputs": [],
      "name": "pause",
      "outputs": [],
      "stateMutability": "nonpayable",
      "type": "function"
    },
    {
      "inputs": [],
      "name": "paused",
      "outputs": [
        {
          "internalType": "bool",
          "name": "",
          "type": "bool"
        }
      ],
      "stateMutability": "view",
      "type": "function"
    },
    {
      "inputs": [
        {
          "internalType": "string",
          "name": "",
          "type": "string"
        }
      ],
      "name": "processed",
      "outputs": [
        {
          "internalType": "bool",
          "name": "",
          "type": "bool"
        }
      ],
      "stateMutability": "view",
      "type": "function"
    },
    {
      "inputs": [
        {
          "internalType": "bytes",
          "name": "_data",
          "type": "bytes"
        },
        {
          "internalType": "address",
          "name": "_to",
          "type": "address"
        },
        {
          "internalType": "string",
          "name": "_lockHash",
          "type": "string"
        }
      ],
      "name": "release",
      "outputs": [
        {
          "internalType": "uint256",
          "name": "swapOutput",
          "type": "uint256"
        }
      ],
      "stateMutability": "nonpayable",
      "type": "function"
    },
    {
      "inputs": [],
      "name": "renounceOwnership",
      "outputs": [],
      "stateMutability": "nonpayable",
      "type": "function"
    },
    {
      "inputs": [
        {
          "internalType": "address",
          "name": "_newAdmin",
          "type": "address"
        }
      ],
      "name": "setBridgeAdmin",
      "outputs": [],
      "stateMutability": "nonpayable",
      "type": "function"
    },
    {
      "inputs": [
        {
          "internalType": "address",
          "name": "_newToken",
          "type": "address"
        }
      ],
      "name": "setBridgeLiquidityToken",
      "outputs": [],
      "stateMutability": "nonpayable",
      "type": "function"
    },
    {
      "inputs": [
        {
          "internalType": "bytes32",
          "name": "_destChain",
          "type": "bytes32"
        },
        {
          "internalType": "bool",
          "name": "_status",
          "type": "bool"
        }
      ],
      "name": "setDestChain",
      "outputs": [],
      "stateMutability": "nonpayable",
      "type": "function"
    },
    {
      "inputs": [
        {
          "internalType": "address",
          "name": "_newExchange",
          "type": "address"
        }
      ],
      "name": "setNewExchange",
      "outputs": [],
      "stateMutability": "nonpayable",
      "type": "function"
    },
    {
      "inputs": [
        {
          "internalType": "bytes",
          "name": "_data",
          "type": "bytes"
        },
        {
          "internalType": "address",
          "name": "_swapper",
          "type": "address"
        }
      ],
      "name": "swap",
      "outputs": [],
      "stateMutability": "payable",
      "type": "function"
    },
    {
      "inputs": [
        {
          "internalType": "bytes[]",
          "name": "_data",
          "type": "bytes[]"
        },
        {
          "internalType": "address",
          "name": "_swapper",
          "type": "address"
        }
      ],
      "name": "swapBatch",
      "outputs": [],
      "stateMutability": "payable",
      "type": "function"
    },
    {
      "inputs": [
        {
          "internalType": "address",
          "name": "newOwner",
          "type": "address"
        }
      ],
      "name": "transferOwnership",
      "outputs": [],
      "stateMutability": "nonpayable",
      "type": "function"
    },
    {
      "inputs": [],
      "name": "unpause",
      "outputs": [],
      "stateMutability": "nonpayable",
      "type": "function"
    },
    {
      "inputs": [
        {
          "internalType": "address",
          "name": "_token",
          "type": "address"
        },
        {
          "internalType": "address",
          "name": "_beneficiary",
          "type": "address"
        },
        {
          "internalType": "uint256",
          "name": "_amount",
          "type": "uint256"
        }
      ],
      "name": "withdrawFees",
      "outputs": [],
      "stateMutability": "nonpayable",
      "type": "function"
    },
    {
      "stateMutability": "payable",
      "type": "receive"
    }
  ],
  "bytecode": "0x608060405234801561001057600080fd5b506147c0806100206000396000f3fe6080604052600436106101855760003560e01c8063986cf3b6116100d1578063cf0bc9251161008a578063e753e60011610064578063e753e6001461051f578063e7c64d251461054a578063f2fde38b14610573578063f8b2cb4f1461059c5761018c565b8063cf0bc925146104af578063d903ebad146104da578063e55dc4e6146104f65761018c565b8063986cf3b6146103a75780639e34ec96146103e4578063a6af2dfe14610414578063ae0caeb31461043f578063b50e44b81461045b578063c4d66de8146104865761018c565b80634cbfb8561161013e578063715018a611610118578063715018a614610325578063772269671461033c5780638456cb59146103655780638da5cb5b1461037c5761018c565b80634cbfb85614610294578063540907bb146102d15780635c975abb146102fa5761018c565b80630380fd0314610191578063114d39b0146101bc57806320cd25a5146101f957806331f7d964146102295780633bd74d86146102545780633f4ba83a1461027d5761018c565b3661018c57005b600080fd5b34801561019d57600080fd5b506101a66105d9565b6040516101b39190612d20565b60405180910390f35b3480156101c857600080fd5b506101e360048036038101906101de9190612d85565b6105ff565b6040516101f09190612dcd565b60405180910390f35b610213600480360381019061020e9190612e79565b61061f565b6040516102209190612f06565b60405180910390f35b34801561023557600080fd5b5061023e6109fc565b60405161024b9190612d20565b60405180910390f35b34801561026057600080fd5b5061027b60048036038101906102769190612f21565b610a14565b005b34801561028957600080fd5b50610292610acf565b005b3480156102a057600080fd5b506102bb60048036038101906102b69190612fa4565b610ae1565b6040516102c89190612f06565b60405180910390f35b3480156102dd57600080fd5b506102f860048036038101906102f39190612f21565b610eb2565b005b34801561030657600080fd5b5061030f610f6d565b60405161031c9190612dcd565b60405180910390f35b34801561033157600080fd5b5061033a610f84565b005b34801561034857600080fd5b50610363600480360381019061035e9190612f21565b610f98565b005b34801561037157600080fd5b5061037a611053565b005b34801561038857600080fd5b50610391611065565b60405161039e9190612d20565b60405180910390f35b3480156103b357600080fd5b506103ce60048036038101906103c9919061317a565b61108f565b6040516103db9190612dcd565b60405180910390f35b6103fe60048036038101906103f991906131c3565b6110c5565b60405161040b9190612f06565b60405180910390f35b34801561042057600080fd5b506104296113c8565b6040516104369190612d20565b60405180910390f35b61045960048036038101906104549190613244565b6113ee565b005b34801561046757600080fd5b506104706117f8565b60405161047d9190612d20565b60405180910390f35b34801561049257600080fd5b506104ad60048036038101906104a89190612f21565b611810565b005b3480156104bb57600080fd5b506104c46119a0565b6040516104d19190612d20565b60405180910390f35b6104f460048036038101906104ef91906132fa565b6119c6565b005b34801561050257600080fd5b5061051d60048036038101906105189190613386565b611c53565b005b34801561052b57600080fd5b50610534611cff565b6040516105419190612d20565b60405180910390f35b34801561055657600080fd5b50610571600480360381019061056c9190613405565b611d25565b005b34801561057f57600080fd5b5061059a60048036038101906105959190612f21565b611d5c565b005b3480156105a857600080fd5b506105c360048036038101906105be9190612f21565b611ddf565b6040516105d09190612f06565b60405180910390f35b60ca60009054906101000a900473ffffffffffffffffffffffffffffffffffffffff1681565b60ce6020528060005260406000206000915054906101000a900460ff1681565b6000610629611eb2565b610631611efc565b600033905060006106428787611f4b565b9050600081604001510361068b576040517f08c379a0000000000000000000000000000000000000000000000000000000008152600401610682906134a2565b60405180910390fd5b60cb60009054906101000a900473ffffffffffffffffffffffffffffffffffffffff1673ffffffffffffffffffffffffffffffffffffffff16816020015173ffffffffffffffffffffffffffffffffffffffff161461071f576040517f08c379a00000000000000000000000000000000000000000000000000000000081526004016107169061350e565b60405180910390fd5b60ce600086815260200190815260200160002060009054906101000a900460ff1661077f576040517f08c379a00000000000000000000000000000000000000000000000000000000081526004016107769061357a565b60405180910390fd5b600073ffffffffffffffffffffffffffffffffffffffff168473ffffffffffffffffffffffffffffffffffffffff16036107ee576040517f08c379a00000000000000000000000000000000000000000000000000000000081526004016107e5906135e6565b60405180910390fd5b73eeeeeeeeeeeeeeeeeeeeeeeeeeeeeeeeeeeeeeee73ffffffffffffffffffffffffffffffffffffffff16816000015173ffffffffffffffffffffffffffffffffffffffff1603610884578060400151341461087f576040517f08c379a000000000000000000000000000000000000000000000000000000000815260040161087690613652565b60405180910390fd5b610910565b600034146108c7576040517f08c379a00000000000000000000000000000000000000000000000000000000081526004016108be906136be565b60405180910390fd5b6108da8160000151838360400151611fc9565b61090f816000015160ca60009054906101000a900473ffffffffffffffffffffffffffffffffffffffff168360400151611ffb565b5b806020015173ffffffffffffffffffffffffffffffffffffffff16816000015173ffffffffffffffffffffffffffffffffffffffff16036109575780604001519250610963565b610960816120d5565b92505b60006002610970856121f9565b61097a919061370d565b905080846109889190613767565b9350858373ffffffffffffffffffffffffffffffffffffffff167fde7a35d4e92ea3618a612a510930eb345de81289e96c9e1fb2952342ca8ae7be846000015188866040015189876040516109e195949392919061379b565b60405180910390a35050506109f46122b0565b949350505050565b73eeeeeeeeeeeeeeeeeeeeeeeeeeeeeeeeeeeeeeee81565b610a1c6122ba565b600073ffffffffffffffffffffffffffffffffffffffff168173ffffffffffffffffffffffffffffffffffffffff1603610a8b576040517f08c379a0000000000000000000000000000000000000000000000000000000008152600401610a829061383a565b60405180910390fd5b8060cb60006101000a81548173ffffffffffffffffffffffffffffffffffffffff021916908373ffffffffffffffffffffffffffffffffffffffff16021790555050565b610ad76122ba565b610adf612338565b565b6000610aeb611eb2565b610af3611efc565b6000610aff8787611f4b565b905060cc60009054906101000a900473ffffffffffffffffffffffffffffffffffffffff1673ffffffffffffffffffffffffffffffffffffffff163373ffffffffffffffffffffffffffffffffffffffff1614610b91576040517f08c379a0000000000000000000000000000000000000000000000000000000008152600401610b88906138a6565b60405180910390fd5b6000816040015103610bd8576040517f08c379a0000000000000000000000000000000000000000000000000000000008152600401610bcf90613912565b60405180910390fd5b60cb60009054906101000a900473ffffffffffffffffffffffffffffffffffffffff1673ffffffffffffffffffffffffffffffffffffffff16816000015173ffffffffffffffffffffffffffffffffffffffff1614610c6c576040517f08c379a0000000000000000000000000000000000000000000000000000000008152600401610c639061350e565b60405180910390fd5b60cd8484604051610c7e929190613962565b908152602001604051809103902060009054906101000a900460ff1615610cda576040517f08c379a0000000000000000000000000000000000000000000000000000000008152600401610cd1906139c7565b60405180910390fd5b600160cd8585604051610cee929190613962565b908152602001604051809103902060006101000a81548160ff021916908315150217905550806020015173ffffffffffffffffffffffffffffffffffffffff16816000015173ffffffffffffffffffffffffffffffffffffffff1603610d5a5780604001519150610d9b565b610d8f816000015160ca60009054906101000a900473ffffffffffffffffffffffffffffffffffffffff168360400151611ffb565b610d98816120d5565b91505b73eeeeeeeeeeeeeeeeeeeeeeeeeeeeeeeeeeeeeeee73ffffffffffffffffffffffffffffffffffffffff16816020015173ffffffffffffffffffffffffffffffffffffffff1603610e32578473ffffffffffffffffffffffffffffffffffffffff166108fc839081150290604051600060405180830381858888f19350505050158015610e2c573d6000803e3d6000fd5b50610e42565b610e418160200151868461239b565b5b8473ffffffffffffffffffffffffffffffffffffffff167ff335c0ff9f2ccebd96f14837787af88d61251228f49d11a819c48c9cb728a63482602001518686856040015187604051610e98959493929190613a14565b60405180910390a250610ea96122b0565b95945050505050565b610eba6122ba565b600073ffffffffffffffffffffffffffffffffffffffff168173ffffffffffffffffffffffffffffffffffffffff1603610f29576040517f08c379a0000000000000000000000000000000000000000000000000000000008152600401610f209061383a565b60405180910390fd5b8060ca60006101000a81548173ffffffffffffffffffffffffffffffffffffffff021916908373ffffffffffffffffffffffffffffffffffffffff16021790555050565b6000606560009054906101000a900460ff16905090565b610f8c6122ba565b610f9660006123cb565b565b610fa06122ba565b600073ffffffffffffffffffffffffffffffffffffffff168173ffffffffffffffffffffffffffffffffffffffff160361100f576040517f08c379a00000000000000000000000000000000000000000000000000000000081526004016110069061383a565b60405180910390fd5b8060cc60006101000a81548173ffffffffffffffffffffffffffffffffffffffff021916908373ffffffffffffffffffffffffffffffffffffffff16021790555050565b61105b6122ba565b611063612491565b565b6000603360009054906101000a900473ffffffffffffffffffffffffffffffffffffffff16905090565b60cd818051602081018201805184825260208301602085012081835280955050505050506000915054906101000a900460ff1681565b60006110cf611eb2565b6110d7611efc565b600033905060006110e88787611f4b565b90506000816040015103611131576040517f08c379a0000000000000000000000000000000000000000000000000000000008152600401611128906134a2565b60405180910390fd5b60cb60009054906101000a900473ffffffffffffffffffffffffffffffffffffffff1673ffffffffffffffffffffffffffffffffffffffff16816020015173ffffffffffffffffffffffffffffffffffffffff16146111c5576040517f08c379a00000000000000000000000000000000000000000000000000000000081526004016111bc9061350e565b60405180910390fd5b73eeeeeeeeeeeeeeeeeeeeeeeeeeeeeeeeeeeeeeee73ffffffffffffffffffffffffffffffffffffffff16816000015173ffffffffffffffffffffffffffffffffffffffff160361125b5780604001513414611256576040517f08c379a000000000000000000000000000000000000000000000000000000000815260040161124d90613652565b60405180910390fd5b6112e7565b6000341461129e576040517f08c379a0000000000000000000000000000000000000000000000000000000008152600401611295906136be565b60405180910390fd5b6112b18160000151838360400151611fc9565b6112e6816000015160ca60009054906101000a900473ffffffffffffffffffffffffffffffffffffffff168360400151611ffb565b5b806020015173ffffffffffffffffffffffffffffffffffffffff16816000015173ffffffffffffffffffffffffffffffffffffffff160361132e578060400151925061133a565b611337816120d5565b92505b6000611345846121f9565b905080846113539190613767565b93508273ffffffffffffffffffffffffffffffffffffffff167f9a6d39bebc3da250a5217afe6c0601514658e015b79c94b9698e3295183df4ef87878560000151866040015189876040516113ad96959493929190613a62565b60405180910390a25050506113c06122b0565b949350505050565b60cc60009054906101000a900473ffffffffffffffffffffffffffffffffffffffff1681565b6113f6611eb2565b6113fe611efc565b600061140a8484611f4b565b90506000816040015103611453576040517f08c379a000000000000000000000000000000000000000000000000000000000815260040161144a90613912565b60405180910390fd5b806020015173ffffffffffffffffffffffffffffffffffffffff16816000015173ffffffffffffffffffffffffffffffffffffffff16036114c9576040517f08c379a00000000000000000000000000000000000000000000000000000000081526004016114c090613b0a565b60405180910390fd5b3073ffffffffffffffffffffffffffffffffffffffff163373ffffffffffffffffffffffffffffffffffffffff161461156b578173ffffffffffffffffffffffffffffffffffffffff163373ffffffffffffffffffffffffffffffffffffffff161461156a576040517f08c379a000000000000000000000000000000000000000000000000000000000815260040161156190613b76565b60405180910390fd5b5b73eeeeeeeeeeeeeeeeeeeeeeeeeeeeeeeeeeeeeeee73ffffffffffffffffffffffffffffffffffffffff16816000015173ffffffffffffffffffffffffffffffffffffffff160361160157806040015134146115fc576040517f08c379a00000000000000000000000000000000000000000000000000000000081526004016115f390613652565b60405180910390fd5b61168d565b60003414611644576040517f08c379a000000000000000000000000000000000000000000000000000000000815260040161163b906136be565b60405180910390fd5b6116578160000151838360400151611fc9565b61168c816000015160ca60009054906101000a900473ffffffffffffffffffffffffffffffffffffffff168360400151611ffb565b5b6000611698826120d5565b905060006116a5826121f9565b905080826116b39190613767565b915073eeeeeeeeeeeeeeeeeeeeeeeeeeeeeeeeeeeeeeee73ffffffffffffffffffffffffffffffffffffffff16836020015173ffffffffffffffffffffffffffffffffffffffff160361174c578373ffffffffffffffffffffffffffffffffffffffff166108fc839081150290604051600060405180830381858888f19350505050158015611746573d6000803e3d6000fd5b5061175c565b61175b8360200151858461239b565b5b826020015173ffffffffffffffffffffffffffffffffffffffff16836000015173ffffffffffffffffffffffffffffffffffffffff168573ffffffffffffffffffffffffffffffffffffffff167fc9163c3bdf7263acf1bb3d24072cc7da025f7181c31e2edc7e1673edf5e0ca32866040015186866040516117e093929190613b96565b60405180910390a45050506117f36122b0565b505050565b731111111254fb6c44bac0bed2854e76f90643097d81565b60008060019054906101000a900460ff161590508080156118415750600160008054906101000a900460ff1660ff16105b8061186e5750611850306124f4565b15801561186d5750600160008054906101000a900460ff1660ff16145b5b6118ad576040517f08c379a00000000000000000000000000000000000000000000000000000000081526004016118a490613c3f565b60405180910390fd5b60016000806101000a81548160ff021916908360ff16021790555080156118ea576001600060016101000a81548160ff0219169083151502179055505b6118f2612517565b6118fa612570565b6119026125c9565b8160c960006101000a81548173ffffffffffffffffffffffffffffffffffffffff021916908373ffffffffffffffffffffffffffffffffffffffff160217905550801561199c5760008060016101000a81548160ff0219169083151502179055507f7f26b83ff96e1f2b6a682f133852f6798a09c465da95921460cefb384740249860016040516119939190613cb1565b60405180910390a15b5050565b60cb60009054906101000a900473ffffffffffffffffffffffffffffffffffffffff1681565b6119ce611eb2565b8073ffffffffffffffffffffffffffffffffffffffff163373ffffffffffffffffffffffffffffffffffffffff1614611a3c576040517f08c379a0000000000000000000000000000000000000000000000000000000008152600401611a3390613b76565b60405180910390fd5b6000805b84849050811015611bd957366000868684818110611a6157611a60613ccc565b5b9050602002810190611a739190613d0a565b915091506000611a838383611f4b565b905073eeeeeeeeeeeeeeeeeeeeeeeeeeeeeeeeeeeeeeee73ffffffffffffffffffffffffffffffffffffffff16816000015173ffffffffffffffffffffffffffffffffffffffff1603611b5b573073ffffffffffffffffffffffffffffffffffffffff1663ae0caeb3826040015185858a6040518563ffffffff1660e01b8152600401611b1293929190613dab565b6000604051808303818588803b158015611b2b57600080fd5b505af1158015611b3f573d6000803e3d6000fd5b5050505050806040015185611b549190613ddd565b9450611bcb565b3073ffffffffffffffffffffffffffffffffffffffff1663ae0caeb38484896040518463ffffffff1660e01b8152600401611b9893929190613dab565b600060405180830381600087803b158015611bb257600080fd5b505af1158015611bc6573d6000803e3d6000fd5b505050505b836001019350505050611a40565b5080341015611beb57611bea613e33565b5b60008134611bf99190613767565b90506000811115611c4c573373ffffffffffffffffffffffffffffffffffffffff166108fc829081150290604051600060405180830381858888f19350505050158015611c4a573d6000803e3d6000fd5b505b5050505050565b611c5b6122ba565b73eeeeeeeeeeeeeeeeeeeeeeeeeeeeeeeeeeeeeeee73ffffffffffffffffffffffffffffffffffffffff168373ffffffffffffffffffffffffffffffffffffffff1603611cee578173ffffffffffffffffffffffffffffffffffffffff166108fc829081150290604051600060405180830381858888f19350505050158015611ce8573d6000803e3d6000fd5b50611cfa565b611cf983838361239b565b5b505050565b60c960009054906101000a900473ffffffffffffffffffffffffffffffffffffffff1681565b611d2d6122ba565b8060ce600084815260200190815260200160002060006101000a81548160ff0219169083151502179055505050565b611d646122ba565b600073ffffffffffffffffffffffffffffffffffffffff168173ffffffffffffffffffffffffffffffffffffffff1603611dd3576040517f08c379a0000000000000000000000000000000000000000000000000000000008152600401611dca90613ed4565b60405180910390fd5b611ddc816123cb565b50565b600073eeeeeeeeeeeeeeeeeeeeeeeeeeeeeeeeeeeeeeee73ffffffffffffffffffffffffffffffffffffffff168273ffffffffffffffffffffffffffffffffffffffff1603611e3057479050611ead565b8173ffffffffffffffffffffffffffffffffffffffff166370a08231306040518263ffffffff1660e01b8152600401611e699190612d20565b602060405180830381865afa158015611e86573d6000803e3d6000fd5b505050506040513d601f19601f82011682018060405250810190611eaa9190613f09565b90505b919050565b611eba610f6d565b15611efa576040517f08c379a0000000000000000000000000000000000000000000000000000000008152600401611ef190613f82565b60405180910390fd5b565b600260975403611f41576040517f08c379a0000000000000000000000000000000000000000000000000000000008152600401611f3890613fee565b60405180910390fd5b6002609781905550565b611f53612c8b565b6000806000808686810190611f6891906140ed565b935093509350935060405180608001604052808573ffffffffffffffffffffffffffffffffffffffff1681526020018473ffffffffffffffffffffffffffffffffffffffff1681526020018381526020018281525094505050505092915050565b611ff68230838673ffffffffffffffffffffffffffffffffffffffff16612622909392919063ffffffff16565b505050565b60008373ffffffffffffffffffffffffffffffffffffffff1663dd62ed3e30856040518363ffffffff1660e01b8152600401612038929190614170565b602060405180830381865afa158015612055573d6000803e3d6000fd5b505050506040513d601f19601f820116820180604052508101906120799190613f09565b9050818110156120cf576120ce837fffffffffffffffffffffffffffffffffffffffffffffffffffffffffffffffff8673ffffffffffffffffffffffffffffffffffffffff166126ab9092919063ffffffff16565b5b50505050565b6000806120e58360200151611ddf565b9050600060ca60009054906101000a900473ffffffffffffffffffffffffffffffffffffffff1673ffffffffffffffffffffffffffffffffffffffff163485606001516040516121359190614213565b60006040518083038185875af1925050503d8060008114612172576040519150601f19603f3d011682016040523d82523d6000602084013e612177565b606091505b50509050806121bb576040517f08c379a00000000000000000000000000000000000000000000000000000000081526004016121b290614276565b60405180910390fd5b60006121ca8560200151611ddf565b9050600083826121da9190613767565b9050600081036121ed576121ec613e33565b5b80945050505050919050565b60008060c960009054906101000a900473ffffffffffffffffffffffffffffffffffffffff1673ffffffffffffffffffffffffffffffffffffffff1663256a49356040518163ffffffff1660e01b8152600401602060405180830381865afa158015612269573d6000803e3d6000fd5b505050506040513d601f19601f8201168201806040525081019061228d9190613f09565b9050612710818461229e919061370d565b6122a891906142c5565b915050919050565b6001609781905550565b6122c26127fa565b73ffffffffffffffffffffffffffffffffffffffff166122e0611065565b73ffffffffffffffffffffffffffffffffffffffff1614612336576040517f08c379a000000000000000000000000000000000000000000000000000000000815260040161232d90614342565b60405180910390fd5b565b612340612802565b6000606560006101000a81548160ff0219169083151502179055507f5db9ee0a495bf2e6ff9c91a7834c1ba4fdd244a5e8aa4e537bd38aeae4b073aa6123846127fa565b6040516123919190612d20565b60405180910390a1565b6123c682828573ffffffffffffffffffffffffffffffffffffffff1661284b9092919063ffffffff16565b505050565b6000603360009054906101000a900473ffffffffffffffffffffffffffffffffffffffff16905081603360006101000a81548173ffffffffffffffffffffffffffffffffffffffff021916908373ffffffffffffffffffffffffffffffffffffffff1602179055508173ffffffffffffffffffffffffffffffffffffffff168173ffffffffffffffffffffffffffffffffffffffff167f8be0079c531659141344cd1fd0a4f28419497f9722a3daafe3b4186f6b6457e060405160405180910390a35050565b612499611eb2565b6001606560006101000a81548160ff0219169083151502179055507f62e78cea01bee320cd4e420270b5ea74000d11b0c9f74754ebdbfc544b05a2586124dd6127fa565b6040516124ea9190612d20565b60405180910390a1565b6000808273ffffffffffffffffffffffffffffffffffffffff163b119050919050565b600060019054906101000a900460ff16612566576040517f08c379a000000000000000000000000000000000000000000000000000000000815260040161255d906143d4565b60405180910390fd5b61256e6128d1565b565b600060019054906101000a900460ff166125bf576040517f08c379a00000000000000000000000000000000000000000000000000000000081526004016125b6906143d4565b60405180910390fd5b6125c7612932565b565b600060019054906101000a900460ff16612618576040517f08c379a000000000000000000000000000000000000000000000000000000000815260040161260f906143d4565b60405180910390fd5b61262061299e565b565b6126a5846323b872dd60e01b858585604051602401612643939291906143f4565b604051602081830303815290604052907bffffffffffffffffffffffffffffffffffffffffffffffffffffffff19166020820180517bffffffffffffffffffffffffffffffffffffffffffffffffffffffff83818316178352505050506129f7565b50505050565b6000811480612735575060008373ffffffffffffffffffffffffffffffffffffffff1663dd62ed3e30856040518363ffffffff1660e01b81526004016126f2929190614170565b602060405180830381865afa15801561270f573d6000803e3d6000fd5b505050506040513d601f19601f820116820180604052508101906127339190613f09565b145b612774576040517f08c379a000000000000000000000000000000000000000000000000000000000815260040161276b9061449d565b60405180910390fd5b6127f58363095ea7b360e01b84846040516024016127939291906144bd565b604051602081830303815290604052907bffffffffffffffffffffffffffffffffffffffffffffffffffffffff19166020820180517bffffffffffffffffffffffffffffffffffffffffffffffffffffffff83818316178352505050506129f7565b505050565b600033905090565b61280a610f6d565b612849576040517f08c379a000000000000000000000000000000000000000000000000000000000815260040161284090614532565b60405180910390fd5b565b6128cc8363a9059cbb60e01b848460405160240161286a9291906144bd565b604051602081830303815290604052907bffffffffffffffffffffffffffffffffffffffffffffffffffffffff19166020820180517bffffffffffffffffffffffffffffffffffffffffffffffffffffffff83818316178352505050506129f7565b505050565b600060019054906101000a900460ff16612920576040517f08c379a0000000000000000000000000000000000000000000000000000000008152600401612917906143d4565b60405180910390fd5b61293061292b6127fa565b6123cb565b565b600060019054906101000a900460ff16612981576040517f08c379a0000000000000000000000000000000000000000000000000000000008152600401612978906143d4565b60405180910390fd5b6000606560006101000a81548160ff021916908315150217905550565b600060019054906101000a900460ff166129ed576040517f08c379a00000000000000000000000000000000000000000000000000000000081526004016129e4906143d4565b60405180910390fd5b6001609781905550565b6000612a59826040518060400160405280602081526020017f5361666545524332303a206c6f772d6c6576656c2063616c6c206661696c65648152508573ffffffffffffffffffffffffffffffffffffffff16612abe9092919063ffffffff16565b9050600081511115612ab95780806020019051810190612a799190614567565b612ab8576040517f08c379a0000000000000000000000000000000000000000000000000000000008152600401612aaf90614606565b60405180910390fd5b5b505050565b6060612acd8484600085612ad6565b90509392505050565b606082471015612b1b576040517f08c379a0000000000000000000000000000000000000000000000000000000008152600401612b1290614698565b60405180910390fd5b6000808673ffffffffffffffffffffffffffffffffffffffff168587604051612b449190614213565b60006040518083038185875af1925050503d8060008114612b81576040519150601f19603f3d011682016040523d82523d6000602084013e612b86565b606091505b5091509150612b9787838387612ba3565b92505050949350505050565b60608315612c05576000835103612bfd57612bbd85612c18565b612bfc576040517f08c379a0000000000000000000000000000000000000000000000000000000008152600401612bf390614704565b60405180910390fd5b5b829050612c10565b612c0f8383612c3b565b5b949350505050565b6000808273ffffffffffffffffffffffffffffffffffffffff163b119050919050565b600082511115612c4e5781518083602001fd5b806040517f08c379a0000000000000000000000000000000000000000000000000000000008152600401612c829190614768565b60405180910390fd5b6040518060800160405280600073ffffffffffffffffffffffffffffffffffffffff168152602001600073ffffffffffffffffffffffffffffffffffffffff16815260200160008152602001606081525090565b600073ffffffffffffffffffffffffffffffffffffffff82169050919050565b6000612d0a82612cdf565b9050919050565b612d1a81612cff565b82525050565b6000602082019050612d356000830184612d11565b92915050565b6000604051905090565b600080fd5b600080fd5b6000819050919050565b612d6281612d4f565b8114612d6d57600080fd5b50565b600081359050612d7f81612d59565b92915050565b600060208284031215612d9b57612d9a612d45565b5b6000612da984828501612d70565b91505092915050565b60008115159050919050565b612dc781612db2565b82525050565b6000602082019050612de26000830184612dbe565b92915050565b600080fd5b600080fd5b600080fd5b60008083601f840112612e0d57612e0c612de8565b5b8235905067ffffffffffffffff811115612e2a57612e29612ded565b5b602083019150836001820283011115612e4657612e45612df2565b5b9250929050565b612e5681612cff565b8114612e6157600080fd5b50565b600081359050612e7381612e4d565b92915050565b60008060008060608587031215612e9357612e92612d45565b5b600085013567ffffffffffffffff811115612eb157612eb0612d4a565b5b612ebd87828801612df7565b94509450506020612ed087828801612d70565b9250506040612ee187828801612e64565b91505092959194509250565b6000819050919050565b612f0081612eed565b82525050565b6000602082019050612f1b6000830184612ef7565b92915050565b600060208284031215612f3757612f36612d45565b5b6000612f4584828501612e64565b91505092915050565b60008083601f840112612f6457612f63612de8565b5b8235905067ffffffffffffffff811115612f8157612f80612ded565b5b602083019150836001820283011115612f9d57612f9c612df2565b5b9250929050565b600080600080600060608688031215612fc057612fbf612d45565b5b600086013567ffffffffffffffff811115612fde57612fdd612d4a565b5b612fea88828901612df7565b95509550506020612ffd88828901612e64565b935050604086013567ffffffffffffffff81111561301e5761301d612d4a565b5b61302a88828901612f4e565b92509250509295509295909350565b600080fd5b6000601f19601f8301169050919050565b7f4e487b7100000000000000000000000000000000000000000000000000000000600052604160045260246000fd5b6130878261303e565b810181811067ffffffffffffffff821117156130a6576130a561304f565b5b80604052505050565b60006130b9612d3b565b90506130c5828261307e565b919050565b600067ffffffffffffffff8211156130e5576130e461304f565b5b6130ee8261303e565b9050602081019050919050565b82818337600083830152505050565b600061311d613118846130ca565b6130af565b90508281526020810184848401111561313957613138613039565b5b6131448482856130fb565b509392505050565b600082601f83011261316157613160612de8565b5b813561317184826020860161310a565b91505092915050565b6000602082840312156131905761318f612d45565b5b600082013567ffffffffffffffff8111156131ae576131ad612d4a565b5b6131ba8482850161314c565b91505092915050565b600080600080604085870312156131dd576131dc612d45565b5b600085013567ffffffffffffffff8111156131fb576131fa612d4a565b5b61320787828801612df7565b9450945050602085013567ffffffffffffffff81111561322a57613229612d4a565b5b61323687828801612f4e565b925092505092959194509250565b60008060006040848603121561325d5761325c612d45565b5b600084013567ffffffffffffffff81111561327b5761327a612d4a565b5b61328786828701612df7565b9350935050602061329a86828701612e64565b9150509250925092565b60008083601f8401126132ba576132b9612de8565b5b8235905067ffffffffffffffff8111156132d7576132d6612ded565b5b6020830191508360208202830111156132f3576132f2612df2565b5b9250929050565b60008060006040848603121561331357613312612d45565b5b600084013567ffffffffffffffff81111561333157613330612d4a565b5b61333d868287016132a4565b9350935050602061335086828701612e64565b9150509250925092565b61336381612eed565b811461336e57600080fd5b50565b6000813590506133808161335a565b92915050565b60008060006060848603121561339f5761339e612d45565b5b60006133ad86828701612e64565b93505060206133be86828701612e64565b92505060406133cf86828701613371565b9150509250925092565b6133e281612db2565b81146133ed57600080fd5b50565b6000813590506133ff816133d9565b92915050565b6000806040838503121561341c5761341b612d45565b5b600061342a85828601612d70565b925050602061343b858286016133f0565b9150509250929050565b600082825260208201905092915050565b7f616d6f756e74203d203000000000000000000000000000000000000000000000600082015250565b600061348c600a83613445565b915061349782613456565b602082019050919050565b600060208201905081810360008301526134bb8161347f565b9050919050565b7f64737420746f6b656e20213d206c697175696469747920746f6b656e00000000600082015250565b60006134f8601c83613445565b9150613503826134c2565b602082019050919050565b60006020820190508181036000830152613527816134eb565b9050919050565b7f756e737570706f72746564206465737420636861696e00000000000000000000600082015250565b6000613564601683613445565b915061356f8261352e565b602082019050919050565b6000602082019050818103600083015261359381613557565b9050919050565b7f746f20746f6b656e203d20616464726573732830290000000000000000000000600082015250565b60006135d0601583613445565b91506135db8261359a565b602082019050919050565b600060208201905081810360008301526135ff816135c3565b9050919050565b7f6d73672e76616c756520213d20616d6f756e7400000000000000000000000000600082015250565b600061363c601383613445565b915061364782613606565b602082019050919050565b6000602082019050818103600083015261366b8161362f565b9050919050565b7f6d73672e76616c756520213d2030000000000000000000000000000000000000600082015250565b60006136a8600e83613445565b91506136b382613672565b602082019050919050565b600060208201905081810360008301526136d78161369b565b9050919050565b7f4e487b7100000000000000000000000000000000000000000000000000000000600052601160045260246000fd5b600061371882612eed565b915061372383612eed565b9250817fffffffffffffffffffffffffffffffffffffffffffffffffffffffffffffffff048311821515161561375c5761375b6136de565b5b828202905092915050565b600061377282612eed565b915061377d83612eed565b9250828210156137905761378f6136de565b5b828203905092915050565b600060a0820190506137b06000830188612d11565b6137bd6020830187612d11565b6137ca6040830186612ef7565b6137d76060830185612ef7565b6137e46080830184612ef7565b9695505050505050565b7f7a65726f206164647265737320706172616d7300000000000000000000000000600082015250565b6000613824601383613445565b915061382f826137ee565b602082019050919050565b6000602082019050818103600083015261385381613817565b9050919050565b7f63616c6c657220213d2061646d696e0000000000000000000000000000000000600082015250565b6000613890600f83613445565b915061389b8261385a565b602082019050919050565b600060208201905081810360008301526138bf81613883565b9050919050565b7f616d6f756e74203d3d2030000000000000000000000000000000000000000000600082015250565b60006138fc600b83613445565b9150613907826138c6565b602082019050919050565b6000602082019050818103600083015261392b816138ef565b9050919050565b600081905092915050565b60006139498385613932565b93506139568385846130fb565b82840190509392505050565b600061396f82848661393d565b91508190509392505050565b7f70726f6365737365640000000000000000000000000000000000000000000000600082015250565b60006139b1600983613445565b91506139bc8261397b565b602082019050919050565b600060208201905081810360008301526139e0816139a4565b9050919050565b60006139f38385613445565b9350613a008385846130fb565b613a098361303e565b840190509392505050565b6000608082019050613a296000830188612d11565b8181036020830152613a3c8186886139e7565b9050613a4b6040830185612ef7565b613a586060830184612ef7565b9695505050505050565b600060a0820190508181036000830152613a7d81888a6139e7565b9050613a8c6020830187612d11565b613a996040830186612ef7565b613aa66060830185612ef7565b613ab36080830184612ef7565b979650505050505050565b7f73726320746f6b656e203d3d2064737420746f6b656e00000000000000000000600082015250565b6000613af4601683613445565b9150613aff82613abe565b602082019050919050565b60006020820190508181036000830152613b2381613ae7565b9050919050565b7f63616c6c657220213d2073776170706572000000000000000000000000000000600082015250565b6000613b60601183613445565b9150613b6b82613b2a565b602082019050919050565b60006020820190508181036000830152613b8f81613b53565b9050919050565b6000606082019050613bab6000830186612ef7565b613bb86020830185612ef7565b613bc56040830184612ef7565b949350505050565b7f496e697469616c697a61626c653a20636f6e747261637420697320616c72656160008201527f647920696e697469616c697a6564000000000000000000000000000000000000602082015250565b6000613c29602e83613445565b9150613c3482613bcd565b604082019050919050565b60006020820190508181036000830152613c5881613c1c565b9050919050565b6000819050919050565b600060ff82169050919050565b6000819050919050565b6000613c9b613c96613c9184613c5f565b613c76565b613c69565b9050919050565b613cab81613c80565b82525050565b6000602082019050613cc66000830184613ca2565b92915050565b7f4e487b7100000000000000000000000000000000000000000000000000000000600052603260045260246000fd5b600080fd5b600080fd5b600080fd5b60008083356001602003843603038112613d2757613d26613cfb565b5b80840192508235915067ffffffffffffffff821115613d4957613d48613d00565b5b602083019250600182023603831315613d6557613d64613d05565b5b509250929050565b600082825260208201905092915050565b6000613d8a8385613d6d565b9350613d978385846130fb565b613da08361303e565b840190509392505050565b60006040820190508181036000830152613dc6818587613d7e565b9050613dd56020830184612d11565b949350505050565b6000613de882612eed565b9150613df383612eed565b9250827fffffffffffffffffffffffffffffffffffffffffffffffffffffffffffffffff03821115613e2857613e276136de565b5b828201905092915050565b7f4e487b7100000000000000000000000000000000000000000000000000000000600052600160045260246000fd5b7f4f776e61626c653a206e6577206f776e657220697320746865207a65726f206160008201527f6464726573730000000000000000000000000000000000000000000000000000602082015250565b6000613ebe602683613445565b9150613ec982613e62565b604082019050919050565b60006020820190508181036000830152613eed81613eb1565b9050919050565b600081519050613f038161335a565b92915050565b600060208284031215613f1f57613f1e612d45565b5b6000613f2d84828501613ef4565b91505092915050565b7f5061757361626c653a2070617573656400000000000000000000000000000000600082015250565b6000613f6c601083613445565b9150613f7782613f36565b602082019050919050565b60006020820190508181036000830152613f9b81613f5f565b9050919050565b7f5265656e7472616e637947756172643a207265656e7472616e742063616c6c00600082015250565b6000613fd8601f83613445565b9150613fe382613fa2565b602082019050919050565b6000602082019050818103600083015261400781613fcb565b9050919050565b600061401982612cdf565b9050919050565b6140298161400e565b811461403457600080fd5b50565b60008135905061404681614020565b92915050565b600067ffffffffffffffff8211156140675761406661304f565b5b6140708261303e565b9050602081019050919050565b600061409061408b8461404c565b6130af565b9050828152602081018484840111156140ac576140ab613039565b5b6140b78482856130fb565b509392505050565b600082601f8301126140d4576140d3612de8565b5b81356140e484826020860161407d565b91505092915050565b6000806000806080858703121561410757614106612d45565b5b600061411587828801614037565b945050602061412687828801614037565b935050604061413787828801613371565b925050606085013567ffffffffffffffff81111561415857614157612d4a565b5b614164878288016140bf565b91505092959194509250565b60006040820190506141856000830185612d11565b6141926020830184612d11565b9392505050565b600081519050919050565b600081905092915050565b60005b838110156141cd5780820151818401526020810190506141b2565b838111156141dc576000848401525b50505050565b60006141ed82614199565b6141f781856141a4565b93506142078185602086016141af565b80840191505092915050565b600061421f82846141e2565b915081905092915050565b7f73776170206661696c6564000000000000000000000000000000000000000000600082015250565b6000614260600b83613445565b915061426b8261422a565b602082019050919050565b6000602082019050818103600083015261428f81614253565b9050919050565b7f4e487b7100000000000000000000000000000000000000000000000000000000600052601260045260246000fd5b60006142d082612eed565b91506142db83612eed565b9250826142eb576142ea614296565b5b828204905092915050565b7f4f776e61626c653a2063616c6c6572206973206e6f7420746865206f776e6572600082015250565b600061432c602083613445565b9150614337826142f6565b602082019050919050565b6000602082019050818103600083015261435b8161431f565b9050919050565b7f496e697469616c697a61626c653a20636f6e7472616374206973206e6f74206960008201527f6e697469616c697a696e67000000000000000000000000000000000000000000602082015250565b60006143be602b83613445565b91506143c982614362565b604082019050919050565b600060208201905081810360008301526143ed816143b1565b9050919050565b60006060820190506144096000830186612d11565b6144166020830185612d11565b6144236040830184612ef7565b949350505050565b7f5361666545524332303a20617070726f76652066726f6d206e6f6e2d7a65726f60008201527f20746f206e6f6e2d7a65726f20616c6c6f77616e636500000000000000000000602082015250565b6000614487603683613445565b91506144928261442b565b604082019050919050565b600060208201905081810360008301526144b68161447a565b9050919050565b60006040820190506144d26000830185612d11565b6144df6020830184612ef7565b9392505050565b7f5061757361626c653a206e6f7420706175736564000000000000000000000000600082015250565b600061451c601483613445565b9150614527826144e6565b602082019050919050565b6000602082019050818103600083015261454b8161450f565b9050919050565b600081519050614561816133d9565b92915050565b60006020828403121561457d5761457c612d45565b5b600061458b84828501614552565b91505092915050565b7f5361666545524332303a204552433230206f7065726174696f6e20646964206e60008201527f6f74207375636365656400000000000000000000000000000000000000000000602082015250565b60006145f0602a83613445565b91506145fb82614594565b604082019050919050565b6000602082019050818103600083015261461f816145e3565b9050919050565b7f416464726573733a20696e73756666696369656e742062616c616e636520666f60008201527f722063616c6c0000000000000000000000000000000000000000000000000000602082015250565b6000614682602683613445565b915061468d82614626565b604082019050919050565b600060208201905081810360008301526146b181614675565b9050919050565b7f416464726573733a2063616c6c20746f206e6f6e2d636f6e7472616374000000600082015250565b60006146ee601d83613445565b91506146f9826146b8565b602082019050919050565b6000602082019050818103600083015261471d816146e1565b9050919050565b600081519050919050565b600061473a82614724565b6147448185613445565b93506147548185602086016141af565b61475d8161303e565b840191505092915050565b60006020820190508181036000830152614782818461472f565b90509291505056fea26469706673582212201e3272de50bd19f557df347fd96ffb4b5824979d2c9bd8f37e7880d35411ce0764736f6c634300080d0033",
  "linkReferences": {},
  "deployedLinkReferences": {}
}